:020000040800F2
:10000000000001205D1E00080D19000819190008E4
:100010001F190008251900082B190008000000000E
:10002000000000000000000000000000311900087E
:100030003D19000800000000491900085519000882
:10004000A51E0008A51E0008A51E0008A51E000884
:10005000A51E0008A51E0008A51E0008A51E000874
:10006000A51E0008A51E0008A51E0008A51E000864
:10007000A51E0008A51E0008A51E0008A51E000854
:10008000A51E0008A51E0008A51E0008A51E000844
:10009000A51E0008A51E0008A51E0008A51E000834
:1000A000A51E0008A51E0008A51E0008A51E000824
:1000B000A51E0008A51E0008A51E0008A51E000814
:1000C000A51E0008A51E0008A51E0008A51E000804
:1000D000A51E0008A51E0008A51E0008A51E0008F4
:1000E000A51E0008A51E0008A51E0008A51E0008E4
:1000F000A51E0008A51E0008A51E0008A51E0008D4
:10010000A51E0008A51E0008A51E0008A51E0008C3
:10011000A51E0008A51E0008A51E0008A51E0008B3
:10012000A51E0008A51E0008A51E0008A51E0008A3
:1001300000000000000000000000000000000000BF
:1001400000000000000000000000000000000000AF
:10015000000000000000000000000000000000009F
:10016000000000000000000000000000000000008F
:10017000000000000000000000000000000000007F
:10018000000000000000000000000000000000006F
:10019000000000000000000000000000000000005F
:1001A000000000000000000000000000000000004F
:1001B000000000000000000000000000000000003F
:1001C000000000000000000000000000000000002F
:1001D000000000000000000000000000000000001F
:0401E0005FF8E0F1F3
:1001E40010B5054C237833B9044B13B10448AFF36D
:1001F40000800123237010BD3000002000000000A7
:10020400E401000808B5034B1BB103490348AFF3ED
:10021400008008BD0000000034000020E401000854
:1002240080B500AF154B1B68144A43F001031360FB
:10023400124B5A681149124B13404B600F4B1B6809
:100244000E4A23F0847323F4803313600B4B1B6832
:100254000A4A23F480231360084B5B68074A23F49B
:10026400FE035360054B4FF41F029A6000F07EF8C2
:10027400044B4FF000629A6000BF80BD0010024042
:100284000000FFF800ED00E080B485B000AF00236B
:10029400FB600023BB6000237B602F4B5B6803F093
:1002A4000C03FB60FB68082B11D0FB68082B3AD8C1
:1002B400FB68002B03D0FB68042B04D033E0274BEE
:1002C400274A1A6033E0254B254A1A602FE0224B57
:1002D4005B6803F47013BB601F4B5B6803F48033EB
:1002E4007B60BB689B0C0233BB607B68002B06D130
:1002F400BB681C4A02FB03F3184A136017E0164B51
:100304005B6803F40033002B06D0BB68154A02FB7C
:1003140003F3124A13600AE0BB68114A02FB03F3B9
:100324000E4A136003E00D4B0D4A1A6000BF0A4BDE
:100334005B681B0903F00F030B4AD35CDBB2FB6061
:10034400064B1A68FB6822FA03F3044A136000BFE1
:100354001437BD4680BC70470010024000000020E6
:1003640000127A0000093D000400002080B500AFAF
:1003740000F002F800BF80BD80B483B000AF00235A
:100384007B6000233B603A4B1B68394A43F480335B
:100394001360374B1B6803F400333B607B68013305
:1003A4007B603B68002B03D17B68B3F5A06FF0D171
:1003B4002F4B1B6803F40033002B02D001233B6056
:1003C40001E000233B603B68012B4BD1294B1B68A8
:1003D400284A43F010031360264B1B68254A23F078
:1003E40003031360234B1B68224A43F00203136088
:1003F4001F4B1F4A5B6853601D4B1D4A5B6853606B
:100404001B4B5B681A4A43F480635360184B5B6868
:10041400174A23F47C135360154B5B68144A43F466
:10042400E8135360124B1B68114A43F08073136046
:1004340000BF0F4B1B6803F00073002BF9D00C4B6B
:100444005B680B4A23F003035360094B5B68084A5B
:1004540043F00203536000BF054B5B6803F00C03D9
:10046400082BF9D100BF0C37BD4680BC704700BFD4
:10047400001002400020024080B485B000AF034663
:10048400FB800023FB8107E00A23FB8100BFFB897B
:100494005A1EFA81002BFAD1FB885A1EFA80002BCF
:1004A400F2D100BF00BF1437BD4680BC704780B492
:1004B40085B000AF0346FB800023FB8108E042F6D1
:1004C400E063FB8100BFFB895A1EFA81002BFAD13D
:1004D400FB885A1EFA80002BF1D100BF00BF1437ED
:1004E400BD4680BC7047000080B582B000AF4FF4B9
:1004F4000063BB800423FB710323BB713B1D1946BE
:10050400034800F09BFB00BF0837BD4680BD00BF19
:10051400000C014080B582B000AF4FF40063BB8093
:100524001023FB710323BB713B1D1946034800F0E4
:1005340085FB00BF0837BD4680BD00BF000C0140ED
:1005440080B582B000AF0121082001F0B9F84FF462
:100554004063BB801023FB710323BB713B1D194611
:10056400054800F06BFB4FF44061034800F07FFC4A
:1005740000BF0837BD4680BD000C014080B500AF08
:10058400FFF7C8FF4FF440610A4800F070FC0520F3
:10059400FFF772FF4FF40061064800F076FC052077
:1005A400FFF76AFF4FF48061024800F06EFC00BF61
:1005B40080BD00BF000C014080B500AFFFF7AAFF6B
:1005C4004FF440610B4800F060FC0520FFF754FF36
:1005D4004FF48061074800F04AFC0520FFF74CFF08
:1005E4004FF40061034800F042FC0520FFF744FF8C
:1005F40000BF80BD000C014080B584B000AF03464D
:10060400FB71FFF787FF4FF480611B4800F03DFC4E
:100614000023FB7327E097F90730002B05DA4FF42A
:100624000061154800F023FC04E04FF40061124817
:1006340000F02BFCFB795B00FB710220FFF71CFF31
:100644004FF480610C4800F012FC0220FFF714FF05
:100654004FF48061084800F018FC0220FFF70CFFFB
:10066400FB7B0133FB73FB7B072BD4D900BF00BF9B
:100674001037BD4680BD00BF000C014080B584B07A
:1006840000AF0346FB71FFF72FFF0023BB7321E08C
:100694004FF48061174800F0F8FB0220FFF7ECFEEE
:1006A4004FF48061134800F0E2FBFB7B5B00FB73BB
:1006B4004FF400610F4800F090FB0346002B03D079
:1006C400FB7B43F00103FB730120FFF7D5FEBB7BEB
:1006D4000133BB73BB7B072BDAD9FB79002B02D127
:1006E40000F036F801E000F007F8FB7B18461037FD
:1006F400BD4680BD000C014080B500AFFFF70AFF86
:100704004FF40061114800F0B2FB4FF480610F48D0
:1007140000F0BBFB0120FFF7AFFE4FF400610B4874
:1007240000F0B3FB4FF48061084800F0A0FB052003
:10073400FFF7A2FE4FF48061044800F0A6FB4FF4DB
:100744000061024800F093FB00BF80BD000C014033
:1007540080B500AFFFF7DEFE4FF440610F4800F0B4
:1007640094FB0120FFF788FE4FF400610B4800F072
:100774007EFB4FF48061094800F079FB0520FFF708
:100784007BFE4FF48061054800F07FFB4FF400616D
:10079400024800F06CFB00BF80BD00BF000C0140AC
:1007A40080B582B000AF0023FB71FFF79DFE4FF4CC
:1007B4000061144800F05BFB0120FFF75DFE4FF47D
:1007C4008061104800F053FB09E0FB790133FB71B1
:1007D400FB79FA2B03D9FFF7EFFE00230DE04FF46A
:1007E4000061084800F0F9FA0346002BEDD14FF4FC
:1007F4008061044800F03BFB012318460837BD46DE
:1008040080BD00BF000C014080B582B000AFFFF78F
:10081400B5FEC020FFF7F0FEFFF7C2FF0023FB7117
:100824000AE0FB79094AD35C1846FFF7E5FEFFF7B7
:1008340063FFFB790133FB71FB79042BF1D9FFF7DB
:10084400BBFE00BF0837BD4680BD00BF14000020BA
:1008540080B582B000AF194B9B7803F01003FB7195
:10086400FB79002B13D0164B1B68E1339B00184611
:1008740001F02AF903461349184601F031FA0346F8
:10088400184601F0C9FA03460F4A136012E00C4BF4
:100894001B68E13B9B00184601F016F90346094921
:1008A400184601F01DFA0346184601F0B5FA03464E
:1008B400054A136000BF0837BD4680BD1400002000
:1008C4004C0000206F1203425000002080B582B01B
:1008D40000AF00237B601C4B1B687B601B4B9B7829
:1008E40003F01003FB70FB78002B14D0786801F040
:1008F400EBF803461649184601F03EF9034615493C
:10090400184601F02FF80346184601F085FA03460D
:10091400114A136013E0786801F0D6F803460C49D5
:10092400184601F029F903460A49184601F01CF853
:100934000346184601F070FA0346074A136000BFE5
:100944000837BD4680BD00BF5000002014000020C1
:100954006F120341000061434C00002090B583B046
:1009640000AF1A4B00221A60FFF708FEC120FFF700
:1009740043FEFFF715FF0023FB710AE0FC79012019
:10098400FFF77CFE03461A46114B1A55FB790133D7
:10099400FB71FB79042BF1D9FFF70EFE0C4B5B784E
:1009A400BB710B4B1B787B717B7903F03F037B712D
:1009B4007B791A02BB7913441A46044B1A60FFF779
:1009C40085FF00BF0C37BD4690BD00BF500000201E
:1009D4005400002080B582B000AF78600F4A7B6875
:1009E4001360FFF735FF0E4B1B681B0ADAB20D4B81
:1009F4001A700B4B1B68DAB20A4B5A70094B20224F
:100A04009A70084B1122DA70064B00221A71FFF714
:100A1400FBFE00BF0837BD4680BD00BF4C00002070
:100A2400500000201400002080B582B000AF0346BF
:100A3400FB71FFF793FFFB79002B0DD01C4B1B6858
:100A44000A331B4A13601A4B1B681A4A934210D983
:100A5400174B194A1A600CE0154B1B680A3B144AE1
:100A64001360134B1B68154A934202D8104B114A6A
:100A74001A60FFF7EDFE124B1B681B0ADAB2114B2A
:100A84001A700F4B1B68DAB20E4B5A700D4B2022B2
:100A94009A700C4B1122DA700A4B00221A71FFF77C
:100AA400B3FEFFF75BFF00BF0837BD4680BD00BF44
:100AB4004C000020E0A50100CC550100CB550100FD
:100AC400500000201400002080B582B000AF03461F
:100AD400FB71FFF743FFFFF7BBFEFB79002B03D04D
:100AE400144BA0229A7002E0124B20229A70124BEF
:100AF4001B681B0ADBB24033DAB20E4B1A700E4B82
:100B04001B68DAB20B4B5A700A4B1122DA70094B8C
:100B140000221A71FFF778FEFFF720FF074B1B78BE
:100B24005BB2002B01DAFFF719FF00BF0837BD469F
:100B340080BD00BF1400002050000020540000209D
:100B440080B582B000AF78607B682F4A934208D1A9
:100B54000121042000F0F0FD0021042000F0ECFD50
:100B64004EE07B68294A934208D10121082000F015
:100B7400E3FD0021082000F0DFFD41E07B68244A0A
:100B8400934208D10121102000F0D6FD002110204D
:100B940000F0D2FD34E07B681E4A934208D1012163
:100BA400202000F0C9FD0021202000F0C5FD27E031
:100BB4007B68194A934208D10121402000F0BCFD12
:100BC4000021402000F0B8FD1AE07B68134A9342EC
:100BD40008D10121802000F0AFFD0021802000F029
:100BE400ABFD0DE07B680E4A934209D101214FF41D
:100BF400807000F0A1FD00214FF4807000F09CFD96
:100C040000BF0837BD4680BD00080140000C01400C
:100C1400001001400014014000180140001C014074
:100C24000020014080B500AF0121012000F084FDC7
:100C34000021012000F080FD00BF80BD80B489B098
:100C440000AF786039600023FB6100233B6100231F
:100C5400BB610023FB6000237B610023BB603B6816
:100C6400DB7803F00F03FB613B68DB7803F01003D0
:100C7400002B05D03B689B781A46FB691343FB6144
:100C84003B681B88DBB2002B44D07B681B687B610C
:100C94000023BB6138E00122BB6902FA03F3FB6065
:100CA4003B681B881A46FB6813403B613A69FB6842
:100CB4009A4226D1BB699B00FB600F22FB6802FAB3
:100CC40003F3BB60BB68DB437A6913407B61FA6959
:100CD400FB6802FA03F37A6913437B613B68DB78B0
:100CE400282B05D10122BB699A407B685A6108E030
:100CF4003B68DB78482B04D10122BB699A407B68AE
:100D04001A61BB690133BB61BB69072BC3D97B681B
:100D14007A691A603B681B88FF2B46D97B685B683D
:100D24007B610023BB613AE0BB690833012202FA0C
:100D340003F3FB603B681B881A46FB6813403B6166
:100D44003A69FB689A4227D1BB699B00FB600F227A
:100D5400FB6802FA03F3BB60BB68DB437A691340A8
:100D64007B61FA69FB6802FA03F37A6913437B61D6
:100D74003B68DB78282B05D1BB69083301229A40F4
:100D84007B685A613B68DB78482B05D1BB69083323
:100D940001229A407B681A61BB690133BB61BB695C
:100DA400072BC1D97B687A695A6000BF2437BD46D6
:100DB40080BC704780B483B000AF78607B684FF626
:100DC400FF721A807B6802229A707B680422DA70B0
:100DD40000BF0C37BD4680BC704780B485B000AFFF
:100DE40078600B467B800023FB737B689A687B8862
:100DF4001340002B02D00123FB7301E00023FB739B
:100E0400FB7B18461437BD4680BC704780B483B062
:100E140000AF78607B689B689BB218460C37BD4670
:100E240080BC704780B485B000AF78600B467B808F
:100E34000023FB737B68DA687B881340002B02D0A5
:100E44000123FB7301E00023FB73FB7B184614377B
:100E5400BD4680BC704780B483B000AF78607B68C7
:100E6400DB689BB218460C37BD4680BC704780B423
:100E740083B000AF78600B467B807A887B681A6108
:100E840000BF0C37BD4680BC704780B483B000AF50
:100E940078600B467B807A887B685A6100BF0C3788
:100EA400BD4680BC704780B483B000AF78600B4609
:100EB4007B8013467B707B78002B03D07A887B6819
:100EC4001A6102E07A887B685A6100BF0C37BD461C
:100ED40080BC704780B483B000AF78600B467B80E1
:100EE4007A887B68DA6000BF0C37BD4680BC7047E7
:100EF40080B485B000AF78600B467B804FF48033BC
:100F0400FB607B88FA681343FB607B68FA689A612C
:100F14007A887B689A617B68FA689A617B689B69C6
:100F2400FB607B689B69FB6000BF1437BD4680BCD7
:100F3400704780B485B000AF03460A46FB71134680
:100F4400BB710023FB600C4B1B68FB60FA684FF617
:100F540080731340FB60FB791B01FA681343FB6049
:100F6400BB79FA681343FB60034AFB68136000BF54
:100F74001437BD4680BC70470000014080B483B084
:100F840000AF0346FB71044AFB79136000BF0C37C2
:100F9400BD4680BC704700BF1C00204280B487B0AF
:100FA40000AF78600B46FB7000233B610023FB60BD
:100FB40000237B610023BB607B68002B03DA2E4B8C
:100FC400DB697B6102E02C4B5B687B617B681B0CFB
:100FD40003F00F03BB607B689BB23B617B6803F447
:100FE4004013B3F5401F0AD17B6923F070637B6122
:100FF400214B5B68204A23F07063536021E07B68D7
:1010040003F48013002B0ED00322BB6802FA03F30F
:10101400FB60FB68DB437A6913407B617B6943F0C7
:1010240070637B610DE07B685B0D1B013A6902FA1A
:1010340003F3DB437A6913407B617B6943F070639C
:101044007B61FB78002B08D07B685B0D1B013A6940
:1010540002FA03F37A6913437B617B68002B03DA9A
:10106400054A7B69D36102E0034A7B69536000BF90
:101074001C37BD4680BC70470000014080B485B079
:1010840000AF03460A46FB711346BB710023FB60A5
:10109400BB7903F003039B000F2202FA03F3FB6006
:1010A400154ABB799B08DBB2023352F82320FB6854
:1010B400DB431148B9798908C9B21A408B1C40F83E
:1010C40023200D4ABB799B08DBB2023352F823205C
:1010D400F979BB7903F003039B0001FA03F3064893
:1010E400B9798908C9B21A438B1C40F8232000BF80
:1010F4001437BD4680BC70470000014080B483B003
:1011040000AF7860034A7B68136000BF0C37BD46AC
:1011140080BC7047DC00204280B400AF134B1B68D6
:10112400124A43F001031360104B5A680F49104BE5
:1011340013404B600D4B1B680C4A23F0847323F45B
:1011440080331360094B1B68084A23F4802313601F
:10115400064B5B68054A23F4FE035360034B4FF4CC
:101164001F029A6000BFBD4680BC70470010024059
:101174000000FFF880B483B000AF7860134B1B68A5
:10118400124A23F480331360104B1B680F4A23F474
:10119400802313607B68B3F5803F04D07B68B3F58C
:1011A400802F07D00DE0094B1B68084A43F48033B5
:1011B400136006E0054B1B68044A43F4A023136044
:1011C40000BF00BF0C37BD4680BC70470010024012
:1011D40080B582B000AF00233B600023FB71002385
:1011E400BB71312000F014FB0346BB713B68013333
:1011F4003B603B68B3F5A06F02D0BB79002BF0D005
:10120400312000F005FB0346002B02D00123FB71C3
:1012140001E00023FB71FB7918460837BD4680BD09
:1012240080B485B000AF0346FB710023FB600A4B1A
:101234001B68FB60FB6823F0F803FB60FB79DB00B1
:10124400FA681343FB60044AFB68136000BF143759
:10125400BD4680BC704700BF0010024080B483B01C
:1012640000AF0346FB71044AFB79136000BF0C37DF
:10127400BD4680BC704700BF0000424280B485B0C8
:1012840000AF786039600023FB600A4B5B68FB6049
:10129400FB6823F47C13FB607A683B681343FA68A9
:1012A4001343FB60034AFB68536000BF1437BD4619
:1012B40080BC70470010024080B483B000AF034686
:1012C400FB71044AFB79136000BF0C37BD4680BC38
:1012D400704700BF6000424280B485B000AF7860C0
:1012E4000023FB60094B5B68FB60FB6823F003038E
:1012F400FB60FA687B681343FB60044AFB68536035
:1013040000BF1437BD4680BC704700BF00100240C8
:1013140080B400AF044B5B68DBB203F00C03DBB2B8
:101324001846BD4680BC70470010024080B485B0AA
:1013340000AF78600023FB60094B5B68FB60FB68CF
:1013440023F0F003FB60FA687B681343FB60044AF4
:10135400FB68536000BF1437BD4680BC704700BFB4
:101364000010024080B485B000AF78600023FB60B9
:10137400094B5B68FB60FB6823F4E063FB60FA687D
:101384007B681343FB60044AFB68536000BF143757
:10139400BD4680BC704700BF0010024080B485B0D9
:1013A40000AF78600023FB60094B5B68FB60FB685F
:1013B40023F46053FB607B68DB00FA681343FB6033
:1013C400034AFB68536000BF1437BD4680BC7047B6
:1013D4000010024080B483B000AF03460A46FB719C
:1013E4001346BB71BB79002B08D00C4B1B78DAB2C7
:1013F4000A49FB791343DBB20B7009E0074B1B78F6
:10140400DAB2FB79DB43DBB204491340DBB20B7085
:1014140000BF0C37BD4680BC704700BF09100240B6
:1014240080B483B000AF7860034A7B68136000BF68
:101434000C37BD4680BC7047D800424280B485B0AA
:1014440000AF78600023FB60094B5B68FB60FB68BE
:1014540023F44043FB60FA687B681343FB60044A4F
:10146400FB68536000BF1437BD4680BC704700BFA3
:101474000010024080B483B000AF0346FB710C4BF4
:1014840000221A700A4B00221A70FB79012B02D039
:10149400042B04D007E0064B01221A7003E0044B2E
:1014A40005221A7000BF00BF0C37BD4680BC7047D0
:1014B4002010024080B483B000AF0346FB71044A9D
:1014C400FB79136000BF0C37BD4680BC704700BF7A
:1014D4008004424280B483B000AF7860054B1A6A3E
:1014E40004497B6813430B6200BF0C37BD4680BCC4
:1014F400704700BF0010024080B483B000AF0346C1
:10150400FB71044AFB79136000BF0C37BD4680BCF5
:10151400704700BF3C04424280B487B000AF78609B
:1015240000237B6100233B610023FB600023BB603D
:101534004F4B5B6803F00C037B617B69082B11D074
:101544007B69082B3AD87B69002B03D07B69042B79
:1015540004D033E07B68474A1A6033E07B68454A2D
:101564001A602FE0424B5B6803F470133B61404BFD
:101574005B6803F48033FB603B699B0C02333B6183
:10158400FB68002B06D13B693B4A02FB03F27B68F4
:101594001A6017E0364B5B6803F40033002B06D067
:1015A4003B69354A02FB03F27B681A600AE03B6937
:1015B400304A02FB03F27B681A6003E07B682D4A21
:1015C4001A6000BF2A4B5B6803F0F0037B617B6900
:1015D4001B097B61294A7B6913441B78DBB2BB601E
:1015E4007B681A68BB68DA407B685A60204B5B688A
:1015F40003F4E0637B617B691B0A7B611F4A7B699F
:1016040013441B78DBB2BB607B685A68BB68DA4062
:101614007B689A60164B5B6803F460537B617B695B
:10162400DB0A7B61154A7B6913441B78DBB2BB6020
:101634007B685A68BB68DA407B68DA600C4B5B688D
:1016440003F440437B617B699B0B7B610C4A7B69A0
:1016540013441B78DBB2BB607B68DA68BB68B2FBFF
:10166400F3F27B681A6100BF1C37BD4680BC70472B
:101674000010024000127A0000093D001C00002006
:101684002C00002080B483B000AF78600B46FB7060
:10169400FB78002B06D0094B5A6908497B68134331
:1016A4004B6106E0054B5A697B68DB4303491340F1
:1016B4004B6100BF0C37BD4680BC70470010024030
:1016C40080B483B000AF78600B46FB70FB78002BCE
:1016D40006D0094B9A6908497B6813438B6106E07D
:1016E400054B9A697B68DB43034913408B6100BF58
:1016F4000C37BD4680BC70470010024080B483B0F4
:1017040000AF78600B46FB70FB78002B06D0094BCA
:10171400DA6908497B681343CB6106E0054BDA6953
:101724007B68DB4303491340CB6100BF0C37BD46E4
:1017340080BC70470010024080B483B000AF786072
:101744000B46FB70FB78002B06D0094BDA6808497E
:101754007B681343CB6006E0054BDA687B68DB43A8
:1017640003491340CB6000BF0C37BD4680BC7047B3
:101774000010024080B483B000AF78600B46FB7069
:10178400FB78002B06D0094B1A6908497B68134380
:101794000B6106E0054B1A697B68DB430349134080
:1017A4000B6100BF0C37BD4680BC7047001002407F
:1017B40080B483B000AF0346FB71044AFB79136025
:1017C40000BF0C37BD4680BC704700BF4004424296
:1017D40080B483B000AF0346FB71044AFB79136005
:1017E40000BF0C37BD4680BC704700BF4C0042426E
:1017F40080B483B000AF0346FB71044AFB791370D5
:1018040000BF0C37BD4680BC704700BF07100240C4
:1018140080B487B000AF0346FB710023FB60002354
:101824007B610023FB74FB795B09DBB2FB60FB6823
:10183400012B03D1124B1B687B6109E0FB68022B6F
:1018440003D10F4B1B6A7B6102E00D4B5B6A7B612A
:10185400FB7903F01F03FB607A69FB6822FA03F348
:1018640003F00103002B02D00123FB7401E00023E9
:10187400FB74FB7C18461C37BD4680BC704700BF18
:101884000010024080B400AF044B5B6A034A43F08B
:101894008073536200BFBD4680BC70470010024095
:1018A40080B485B000AF0346FB710023FB73084B83
:1018B4009A68FB791340002B02D00123FB7301E0EB
:1018C4000023FB73FB7B18461437BD4680BC70476E
:1018D4000010024080B483B000AF0346FB71044A99
:1018E400FB79137000BF0C37BD4680BC704700BF46
:1018F4000A10024080B500AFFEF722FE0148FFF750
:1019040069F8FEE77C5A010080B400AF00BFBD4611
:1019140080BC704780B400AFFEE780B400AFFEE740
:1019240080B400AFFEE780B400AFFEE780B400AF40
:1019340000BFBD4680BC704780B400AF00BFBD4649
:1019440080BC704780B400AF00BFBD4680BC704708
:1019540080B400AF00BFBD4680BC704780F000403B
:1019640002E000BF81F0004142001FBF5FEA410373
:1019740092EA030F7FEA226C7FEA236C6AD04FEA73
:101984001262D2EB1363C1BFD218414048404140B8
:10199400B8BF5B42192B88BF704710F0004F40F46A
:1019A400000020F07F4018BF404211F0004F41F486
:1019B400000121F07F4118BF494292EA030F3FD052
:1019C400A2F1010241FA03FC10EB0C00C3F1200365
:1019D40001FA03F100F0004302D5494260EB4000F4
:1019E400B0F5000F13D3B0F1807F06D340084FEA5F
:1019F400310102F10102FE2A51D2B1F1004F40EB54
:101A0400C25008BF20F0010040EA030070474900BB
:101A140040EB0000013A28BFB0F5000FEDD2B0FA58
:101A240080FCACF1080CB2EB0C0200FA0CF0AABF7B
:101A340000EBC25052421843BCBFD0401843704719
:101A440092F0000F81F4000106BF80F4000001321F
:101A5400013BB5E74FEA41037FEA226C18BF7FEAF6
:101A6400236C21D092EA030F04D092F0000F08BF38
:101A74000846704790EA010F1CBF0020704712F01F
:101A84007F4F04D1400028BF40F00040704712F15E
:101A940000723CBF00F50000704700F0004343F0C3
:101AA400FE4040F4000070477FEA226216BF0846F9
:101AB4007FEA23630146420206BF5FEA412390EABC
:101AC400010F40F4800070474FF0000304E000BFB2
:101AD40010F0004348BF40425FEA000C08BF704763
:101AE40043F0964301464FF000001CE050EA010227
:101AF40008BF70474FF000030AE000BF50EA01023C
:101B040008BF704711F0004302D5404261EB410128
:101B14005FEA010C02BF84460146002043F0B6434D
:101B240008BFA3F18053A3F50003BCFA8CF2083A72
:101B3400A3EBC25310DB01FA02FC634400FA02FC7B
:101B4400C2F12002BCF1004F20FA02F243EB020082
:101B540008BF20F00100704702F1200201FA02FCE4
:101B6400C2F1200250EA4C0021FA02F243EB0200D7
:101B740008BF20EADC7070474FF0FF0C1CEAD0521B
:101B84001EBF1CEAD15392EA0C0F93EA0C0F6FD0DC
:101B94001A4480EA010C400218BF5FEA41211ED0BA
:101BA4004FF0006343EA501043EA5111A0FB0131A6
:101BB4000CF00040B1F5000F3EBF490041EAD3717B
:101BC4005B0040EA010062F17F02FD2A1DD8B3F1F7
:101BD400004F40EBC25008BF20F00100704790F066
:101BE400000F0CF0004C08BF49024CEA502040EAB8
:101BF40051207F3AC2BFD2F1FF0340EAC25070477E
:101C040040F400004FF00003013A5DDC12F1190FBB
:101C1400DCBF00F000407047C2F10002410021FA2D
:101C240002F1C2F1200200FA02FC5FEA310040F145
:101C3400000053EA4C0308BF20EADC70704792F0BE
:101C4400000F00F0004C02BF400010F4000F013AF6
:101C5400F9D040EA0C0093F0000F01F0004C02BFF1
:101C6400490011F4000F013BF9D041EA0C018FE760
:101C74000CEAD15392EA0C0F18BF93EA0C0F0AD066
:101C840030F0004C18BF31F0004CD8D180EA01008C
:101C940000F00040704790F0000F17BF90F0004F25
:101CA400084691F0000F91F0004F14D092EA0C0F07
:101CB40001D142020FD193EA0C0F03D14B0218BF9A
:101CC400084608D180EA010000F0004040F0FE40E0
:101CD40040F40000704740F0FE4040F4400070477C
:101CE4004FF0FF0C1CEAD0521EBF1CEAD15392EAFB
:101CF4000C0F93EA0C0F69D0A2EB030280EA010CEB
:101D040049024FEA402037D04FF0805343EA111183
:101D140043EA10130CF000408B4238BF5B0042F1E1
:101D24007D024FF4000C8B4224BF5B1A40EA0C0086
:101D3400B3EB510F24BFA3EB510340EA5C00B3EBB8
:101D4400910F24BFA3EB910340EA9C00B3EBD10FA6
:101D540024BFA3EBD10340EADC001B0118BF5FEAF8
:101D64001C1CE0D1FD2A3FF650AF8B4240EBC25021
:101D740008BF20F0010070470CF0004C4CEA5020E2
:101D84007F32C2BFD2F1FF0340EAC250704740F431
:101D940000004FF00003013A37E792F0000F00F023
:101DA400004C02BF400010F4000F013AF9D040EAA1
:101DB4000C0093F0000F01F0004C02BF490011F435
:101DC400000F013BF9D041EA0C0195E70CEAD1532D
:101DD40092EA0C0F08D142027FF47DAF93EA0C0F14
:101DE4007FF470AF084676E793EA0C0F04D14B02F8
:101DF4003FF44CAF08466EE730F0004C18BF31F0AA
:101E0400004CCAD130F000427FF45CAF31F00043A3
:101E14007FF43CAF5FE700BF42000ED2B2F1FE4F49
:101E24000BD34FF09E03B3EB126209D44FEA0023A5
:101E340043F0004323FA02F070474FF0000070476C
:101E440012F1610F01D1420202D14FF0FF3070470D
:101E54004FF00000704700BF002103E00B4B5B58BC
:101E6400435004310A480B4B42189A42F6D30A4AAB
:101E740002E0002342F8043B084B9A42F9D3FEF7F0
:101E8400CFF900F00FF8FFF735FD7047101F000879
:101E94000000002030000020300000205C00002002
:101EA400FEE7000070B500260C4D0D4C641BA41019
:101EB400A64209D100F01AF800260A4D0A4C641B08
:101EC400A410A64205D170BD55F8043B98470136CD
:101ED400EEE755F8043B98470136F2E7081F00087F
:101EE400081F0008081F00080C1F0008F8B500BFF1
:101EF400F8BC08BC9E467047F8B500BFF8BC08BCE7
:041F04009E4670473E
:041F080009020008C2
:041F0C00E5010008E3
:101F100000A24A04000000000000000001020304C7
:101F20000607080929C22011000000000000000077
:101F3000010203040102030406070809020406085B
:0400000508001E5D74
:00000001FF
